{
  "contractName": "Math",
  "abi": [
    {
      "constant": true,
      "inputs": [],
      "name": "LN2",
      "outputs": [
        {
          "name": "",
          "type": "uint256"
        }
      ],
      "payable": false,
      "stateMutability": "view",
      "type": "function"
    },
    {
      "constant": true,
      "inputs": [],
      "name": "LOG2_E",
      "outputs": [
        {
          "name": "",
          "type": "uint256"
        }
      ],
      "payable": false,
      "stateMutability": "view",
      "type": "function"
    },
    {
      "constant": true,
      "inputs": [],
      "name": "ONE",
      "outputs": [
        {
          "name": "",
          "type": "uint256"
        }
      ],
      "payable": false,
      "stateMutability": "view",
      "type": "function"
    },
    {
      "constant": true,
      "inputs": [
        {
          "name": "x",
          "type": "int256"
        }
      ],
      "name": "exp",
      "outputs": [
        {
          "name": "",
          "type": "uint256"
        }
      ],
      "payable": false,
      "stateMutability": "pure",
      "type": "function"
    },
    {
      "constant": true,
      "inputs": [
        {
          "name": "x",
          "type": "uint256"
        }
      ],
      "name": "ln",
      "outputs": [
        {
          "name": "",
          "type": "int256"
        }
      ],
      "payable": false,
      "stateMutability": "pure",
      "type": "function"
    },
    {
      "constant": true,
      "inputs": [
        {
          "name": "x",
          "type": "uint256"
        }
      ],
      "name": "floorLog2",
      "outputs": [
        {
          "name": "lo",
          "type": "int256"
        }
      ],
      "payable": false,
      "stateMutability": "pure",
      "type": "function"
    },
    {
      "constant": true,
      "inputs": [
        {
          "name": "nums",
          "type": "int256[]"
        }
      ],
      "name": "max",
      "outputs": [
        {
          "name": "maxNum",
          "type": "int256"
        }
      ],
      "payable": false,
      "stateMutability": "pure",
      "type": "function"
    }
  ],
  "bytecode": "0x6106f0610030600b82828239805160001a6073146000811461002057610022565bfe5b5030600052607381538281f30073000000000000000000000000000000000000000030146060604052600436106100995763ffffffff7c010000000000000000000000000000000000000000000000000000000060003504166302780677811461009e57806324902e24146100b857806324d4e90a146100c057806345b8bafc146100cb578063c2ee3a08146100d6578063ccc13814146100de578063e46751e314610122575b600080fd5b6100a661012d565b60405190815260200160405180910390f35b6100a6610139565b6100a6600435610146565b6100a660043561032c565b6100a661039f565b6100a660046024813581810190830135806020818102016040519081016040528093929190818152602001838360200280828437509496506103a795505050505050565b6100a660043561042c565b67b17217f7d1cf79ac81565b680171547652b82fe17781565b6000808080808080871161015957600080fd5b6101628761032c565b9450600085121561017e5784600003879060020a029350610188565b600285900a870493505b604060020a8401604060020a808603028115156101a157fe5b05925050506007604060020a828002819005830281900580840282900584028290058085028390058502839005938405600390920585016005909105010191908184028190058402059050600981059190910190604060020a8381838202050281151561020a57fe5b059050600b81059190910190604060020a8381838202050281151561022b57fe5b059050600d81059190910190604060020a8381838202050281151561024c57fe5b059050600f81059190910190604060020a8381838202050281151561026d57fe5b059050601181059190910190604060020a8381838202050281151561028e57fe5b059050601381059190910190604060020a838183820205028115156102af57fe5b059050601581059190910190604060020a838183820205028115156102d057fe5b059050601781059190910190604060020a838183820205028115156102f157fe5b05905060198105919091019060028202680171547652b82fe17770010000000000000000000000000000000087020501979650505050505050565b603f1960c160405b818360010112156103985760008112801561035b5750604060020a81600003859060020a02105b8061037b57506000811215801561037b5750604060020a600282900a8504105b156103885780915061038c565b8092505b50600281830105610334565b5050919050565b604060020a81565b60008060008351116103b857600080fd5b507f8000000000000000000000000000000000000000000000000000000000000000905060005b825181101561042657818382815181106103f557fe5b90602001906020020151131561041e5782818151811061041157fe5b9060200190602002015191505b6001016103df565b50919050565b60008080808068851591f9dd5b9b40d786131561044857600080fd5b682c5c85fdf473de6af21986121561046357600094506106bb565b67b17217f7d1cf79ac604060020a87020595506000861261049557604060020a86059350604060020a860792506104b5565b6001604060020a8705039350604060020a600087900307604060020a0392505b50819050604060020a8067b17217f7d1cf79ab83020401604060020a828402049150604060020a673d7f7bff058b1d5083020401604060020a828402049150604060020a670e35846b82505fc583020401604060020a828402049150604060020a670276556df749cee583020401604060020a828402049150604060020a665761ff9e299cc483020401604060020a828402049150604060020a660a184897c363c383020401604060020a828402049150604060020a65ffe5fe2c458683020401604060020a828402049150604060020a65162c0223a5c883020401604060020a828402049150604060020a6501b5253d395e83020401604060020a828402049150604060020a641e4cf5158b83020401604060020a828402049150604060020a6401e8cac73583020401604060020a828402049150604060020a631c3bd65083020401604060020a828402049150604060020a630181619383020401604060020a828402049150604060020a6213149683020401604060020a828402049150604060020a61e1b783020401604060020a828402049150604060020a6109c783020401600084126106a2576000846101000382600082121561067357fe5b9060020a900411156106895760001994506106bb565b8381600082121561069657fe5b9060020a0294506106bb565b836000038160008212156106b257fe5b9060020a900494505b505050509190505600a165627a7a723058204949c1691c3b6674799c4267fb2237c40ff7a44fcbec0057660e6aab07a52a000029",
  "source": "pragma solidity ^0.4.21;\n\n\n/// @title Math library - Allows calculation of logarithmic and exponential functions\n/// @author Alan Lu - <alan.lu@gnosis.pm>\n/// @author Stefan George - <stefan@gnosis.pm>\nlibrary Math {\n\n    /*\n     *  Constants\n     */\n    // This is equal to 1 in our calculations\n    uint public constant ONE =  0x10000000000000000;\n    uint public constant LN2 = 0xb17217f7d1cf79ac;\n    uint public constant LOG2_E = 0x171547652b82fe177;\n\n    /*\n     *  Public functions\n     */\n    /// @dev Returns natural exponential function value of given x\n    /// @param x x\n    /// @return e**x\n    function exp(int x)\n        public\n        pure\n        returns (uint)\n    {\n        // revert if x is > MAX_POWER, where\n        // MAX_POWER = int(mp.floor(mp.log(mpf(2**256 - 1) / ONE) * ONE))\n        require(x <= 2454971259878909886679);\n        // return 0 if exp(x) is tiny, using\n        // MIN_POWER = int(mp.floor(mp.log(mpf(1) / ONE) * ONE))\n        if (x < -818323753292969962227)\n            return 0;\n        // Transform so that e^x -> 2^x\n        x = x * int(ONE) / int(LN2);\n        // 2^x = 2^whole(x) * 2^frac(x)\n        //       ^^^^^^^^^^ is a bit shift\n        // so Taylor expand on z = frac(x)\n        int shift;\n        uint z;\n        if (x >= 0) {\n            shift = x / int(ONE);\n            z = uint(x % int(ONE));\n        }\n        else {\n            shift = x / int(ONE) - 1;\n            z = ONE - uint(-x % int(ONE));\n        }\n        // 2^x = 1 + (ln 2) x + (ln 2)^2/2! x^2 + ...\n        //\n        // Can generate the z coefficients using mpmath and the following lines\n        // >>> from mpmath import mp\n        // >>> mp.dps = 100\n        // >>> ONE =  0x10000000000000000\n        // >>> print('\\n'.join(hex(int(mp.log(2)**i / mp.factorial(i) * ONE)) for i in range(1, 7)))\n        // 0xb17217f7d1cf79ab\n        // 0x3d7f7bff058b1d50\n        // 0xe35846b82505fc5\n        // 0x276556df749cee5\n        // 0x5761ff9e299cc4\n        // 0xa184897c363c3\n        uint zpow = z;\n        uint result = ONE;\n        result += 0xb17217f7d1cf79ab * zpow / ONE;\n        zpow = zpow * z / ONE;\n        result += 0x3d7f7bff058b1d50 * zpow / ONE;\n        zpow = zpow * z / ONE;\n        result += 0xe35846b82505fc5 * zpow / ONE;\n        zpow = zpow * z / ONE;\n        result += 0x276556df749cee5 * zpow / ONE;\n        zpow = zpow * z / ONE;\n        result += 0x5761ff9e299cc4 * zpow / ONE;\n        zpow = zpow * z / ONE;\n        result += 0xa184897c363c3 * zpow / ONE;\n        zpow = zpow * z / ONE;\n        result += 0xffe5fe2c4586 * zpow / ONE;\n        zpow = zpow * z / ONE;\n        result += 0x162c0223a5c8 * zpow / ONE;\n        zpow = zpow * z / ONE;\n        result += 0x1b5253d395e * zpow / ONE;\n        zpow = zpow * z / ONE;\n        result += 0x1e4cf5158b * zpow / ONE;\n        zpow = zpow * z / ONE;\n        result += 0x1e8cac735 * zpow / ONE;\n        zpow = zpow * z / ONE;\n        result += 0x1c3bd650 * zpow / ONE;\n        zpow = zpow * z / ONE;\n        result += 0x1816193 * zpow / ONE;\n        zpow = zpow * z / ONE;\n        result += 0x131496 * zpow / ONE;\n        zpow = zpow * z / ONE;\n        result += 0xe1b7 * zpow / ONE;\n        zpow = zpow * z / ONE;\n        result += 0x9c7 * zpow / ONE;\n        if (shift >= 0) {\n            if (result >> (256-shift) > 0)\n                return (2**256-1);\n            return result << shift;\n        }\n        else\n            return result >> (-shift);\n    }\n\n    /// @dev Returns natural logarithm value of given x\n    /// @param x x\n    /// @return ln(x)\n    function ln(uint x)\n        public\n        pure\n        returns (int)\n    {\n        require(x > 0);\n        // binary search for floor(log2(x))\n        int ilog2 = floorLog2(x);\n        int z;\n        if (ilog2 < 0)\n            z = int(x << uint(-ilog2));\n        else\n            z = int(x >> uint(ilog2));\n        // z = x * 2^-⌊log₂x⌋\n        // so 1 <= z < 2\n        // and ln z = ln x - ⌊log₂x⌋/log₂e\n        // so just compute ln z using artanh series\n        // and calculate ln x from that\n        int term = (z - int(ONE)) * int(ONE) / (z + int(ONE));\n        int halflnz = term;\n        int termpow = term * term / int(ONE) * term / int(ONE);\n        halflnz += termpow / 3;\n        termpow = termpow * term / int(ONE) * term / int(ONE);\n        halflnz += termpow / 5;\n        termpow = termpow * term / int(ONE) * term / int(ONE);\n        halflnz += termpow / 7;\n        termpow = termpow * term / int(ONE) * term / int(ONE);\n        halflnz += termpow / 9;\n        termpow = termpow * term / int(ONE) * term / int(ONE);\n        halflnz += termpow / 11;\n        termpow = termpow * term / int(ONE) * term / int(ONE);\n        halflnz += termpow / 13;\n        termpow = termpow * term / int(ONE) * term / int(ONE);\n        halflnz += termpow / 15;\n        termpow = termpow * term / int(ONE) * term / int(ONE);\n        halflnz += termpow / 17;\n        termpow = termpow * term / int(ONE) * term / int(ONE);\n        halflnz += termpow / 19;\n        termpow = termpow * term / int(ONE) * term / int(ONE);\n        halflnz += termpow / 21;\n        termpow = termpow * term / int(ONE) * term / int(ONE);\n        halflnz += termpow / 23;\n        termpow = termpow * term / int(ONE) * term / int(ONE);\n        halflnz += termpow / 25;\n        return (ilog2 * int(ONE)) * int(ONE) / int(LOG2_E) + 2 * halflnz;\n    }\n\n    /// @dev Returns base 2 logarithm value of given x\n    /// @param x x\n    /// @return logarithmic value\n    function floorLog2(uint x)\n        public\n        pure\n        returns (int lo)\n    {\n        lo = -64;\n        int hi = 193;\n        // I use a shift here instead of / 2 because it floors instead of rounding towards 0\n        int mid = (hi + lo) >> 1;\n        while((lo + 1) < hi) {\n            if (mid < 0 && x << uint(-mid) < ONE || mid >= 0 && x >> uint(mid) < ONE)\n                hi = mid;\n            else\n                lo = mid;\n            mid = (hi + lo) >> 1;\n        }\n    }\n\n    /// @dev Returns maximum of an array\n    /// @param nums Numbers to look through\n    /// @return Maximum number\n    function max(int[] nums)\n        public\n        pure\n        returns (int maxNum)\n    {\n        require(nums.length > 0);\n        maxNum = -2**255;\n        for (uint i = 0; i < nums.length; i++)\n            if (nums[i] > maxNum)\n                maxNum = nums[i];\n    }\n\n    /// @dev Returns whether an add operation causes an overflow\n    /// @param a First addend\n    /// @param b Second addend\n    /// @return Did no overflow occur?\n    function safeToAdd(uint a, uint b)\n        internal\n        pure\n        returns (bool)\n    {\n        return a + b >= a;\n    }\n\n    /// @dev Returns whether a subtraction operation causes an underflow\n    /// @param a Minuend\n    /// @param b Subtrahend\n    /// @return Did no underflow occur?\n    function safeToSub(uint a, uint b)\n        internal\n        pure\n        returns (bool)\n    {\n        return a >= b;\n    }\n\n    /// @dev Returns whether a multiply operation causes an overflow\n    /// @param a First factor\n    /// @param b Second factor\n    /// @return Did no overflow occur?\n    function safeToMul(uint a, uint b)\n        internal\n        pure\n        returns (bool)\n    {\n        return b == 0 || a * b / b == a;\n    }\n\n    /// @dev Returns sum if no overflow occurred\n    /// @param a First addend\n    /// @param b Second addend\n    /// @return Sum\n    function add(uint a, uint b)\n        internal\n        pure\n        returns (uint)\n    {\n        require(safeToAdd(a, b));\n        return a + b;\n    }\n\n    /// @dev Returns difference if no overflow occurred\n    /// @param a Minuend\n    /// @param b Subtrahend\n    /// @return Difference\n    function sub(uint a, uint b)\n        internal\n        pure\n        returns (uint)\n    {\n        require(safeToSub(a, b));\n        return a - b;\n    }\n\n    /// @dev Returns product if no overflow occurred\n    /// @param a First factor\n    /// @param b Second factor\n    /// @return Product\n    function mul(uint a, uint b)\n        internal\n        pure\n        returns (uint)\n    {\n        require(safeToMul(a, b));\n        return a * b;\n    }\n\n    /// @dev Returns whether an add operation causes an overflow\n    /// @param a First addend\n    /// @param b Second addend\n    /// @return Did no overflow occur?\n    function safeToAdd(int a, int b)\n        internal\n        pure\n        returns (bool)\n    {\n        return (b >= 0 && a + b >= a) || (b < 0 && a + b < a);\n    }\n\n    /// @dev Returns whether a subtraction operation causes an underflow\n    /// @param a Minuend\n    /// @param b Subtrahend\n    /// @return Did no underflow occur?\n    function safeToSub(int a, int b)\n        internal\n        pure\n        returns (bool)\n    {\n        return (b >= 0 && a - b <= a) || (b < 0 && a - b > a);\n    }\n\n    /// @dev Returns whether a multiply operation causes an overflow\n    /// @param a First factor\n    /// @param b Second factor\n    /// @return Did no overflow occur?\n    function safeToMul(int a, int b)\n        internal\n        pure\n        returns (bool)\n    {\n        return (b == 0) || (a * b / b == a);\n    }\n\n    /// @dev Returns sum if no overflow occurred\n    /// @param a First addend\n    /// @param b Second addend\n    /// @return Sum\n    function add(int a, int b)\n        internal\n        pure\n        returns (int)\n    {\n        require(safeToAdd(a, b));\n        return a + b;\n    }\n\n    /// @dev Returns difference if no overflow occurred\n    /// @param a Minuend\n    /// @param b Subtrahend\n    /// @return Difference\n    function sub(int a, int b)\n        internal\n        pure\n        returns (int)\n    {\n        require(safeToSub(a, b));\n        return a - b;\n    }\n\n    /// @dev Returns product if no overflow occurred\n    /// @param a First factor\n    /// @param b Second factor\n    /// @return Product\n    function mul(int a, int b)\n        internal\n        pure\n        returns (int)\n    {\n        require(safeToMul(a, b));\n        return a * b;\n    }\n}\n",
  "sourcePath": "@gnosis.pm/util-contracts/contracts/Math.sol",
  "compiler": {
    "name": "solc",
    "version": "0.4.21+commit.dfe3193c.Emscripten.clang"
  },
  "schemaVersion": "2.0.0",
  "updatedAt": "2018-10-26T16:06:16.062Z"
}