{
  "contractName": "Proxied",
  "abi": [
    {
      "constant": true,
      "inputs": [],
      "name": "masterCopy",
      "outputs": [
        {
          "name": "",
          "type": "address"
        }
      ],
      "payable": false,
      "stateMutability": "view",
      "type": "function"
    }
  ],
  "bytecode": "0x6060604052341561000f57600080fd5b60c48061001d6000396000f300606060405260043610603e5763ffffffff7c0100000000000000000000000000000000000000000000000000000000600035041663a619486e81146043575b600080fd5b3415604d57600080fd5b6053607c565b60405173ffffffffffffffffffffffffffffffffffffffff909116815260200160405180910390f35b60005473ffffffffffffffffffffffffffffffffffffffff16815600a165627a7a723058201798e30aeb00c517eab2d67d8471dc98c2bd89630ee17bff4a54ab5dde3a7a590029",
  "source": "pragma solidity ^0.4.21;\n\n/// @title Proxied - indicates that a contract will be proxied. Also defines storage requirements for Proxy.\n/// @author Alan Lu - <alan@gnosis.pm>\ncontract Proxied {\n    address public masterCopy;\n}\n\n/// @title Proxy - Generic proxy contract allows to execute all transactions applying the code of a master contract.\n/// @author Stefan George - <stefan@gnosis.pm>\ncontract Proxy is Proxied {\n    /// @dev Constructor function sets address of master copy contract.\n    /// @param _masterCopy Master copy address.\n    function Proxy(address _masterCopy)\n        public\n    {\n        require(_masterCopy != 0);\n        masterCopy = _masterCopy;\n    }\n\n    /// @dev Fallback function forwards all transactions and returns all received return data.\n    function ()\n        external\n        payable\n    {\n        address _masterCopy = masterCopy;\n        assembly {\n            calldatacopy(0, 0, calldatasize())\n            let success := delegatecall(not(0), _masterCopy, 0, calldatasize(), 0, 0)\n            returndatacopy(0, 0, returndatasize())\n            switch success\n            case 0 { revert(0, returndatasize()) }\n            default { return(0, returndatasize()) }\n        }\n    }\n}\n",
  "sourcePath": "@gnosis.pm/util-contracts/contracts/Proxy.sol",
  "compiler": {
    "name": "solc",
    "version": "0.4.21+commit.dfe3193c.Emscripten.clang"
  },
  "schemaVersion": "2.0.0",
  "updatedAt": "2018-10-26T16:06:16.068Z"
}