{
  "contractName": "TokenRDN",
  "abi": [
    {
      "constant": true,
      "inputs": [],
      "name": "name",
      "outputs": [
        {
          "name": "",
          "type": "string"
        }
      ],
      "payable": false,
      "stateMutability": "view",
      "type": "function"
    },
    {
      "constant": true,
      "inputs": [],
      "name": "minter",
      "outputs": [
        {
          "name": "",
          "type": "address"
        }
      ],
      "payable": false,
      "stateMutability": "view",
      "type": "function"
    },
    {
      "constant": false,
      "inputs": [
        {
          "name": "spender",
          "type": "address"
        },
        {
          "name": "value",
          "type": "uint256"
        }
      ],
      "name": "approve",
      "outputs": [
        {
          "name": "",
          "type": "bool"
        }
      ],
      "payable": false,
      "stateMutability": "nonpayable",
      "type": "function"
    },
    {
      "constant": true,
      "inputs": [],
      "name": "totalSupply",
      "outputs": [
        {
          "name": "",
          "type": "uint256"
        }
      ],
      "payable": false,
      "stateMutability": "view",
      "type": "function"
    },
    {
      "constant": false,
      "inputs": [
        {
          "name": "from",
          "type": "address"
        },
        {
          "name": "to",
          "type": "address"
        },
        {
          "name": "value",
          "type": "uint256"
        }
      ],
      "name": "transferFrom",
      "outputs": [
        {
          "name": "",
          "type": "bool"
        }
      ],
      "payable": false,
      "stateMutability": "nonpayable",
      "type": "function"
    },
    {
      "constant": false,
      "inputs": [
        {
          "name": "_minter",
          "type": "address"
        }
      ],
      "name": "changeMinter",
      "outputs": [],
      "payable": false,
      "stateMutability": "nonpayable",
      "type": "function"
    },
    {
      "constant": true,
      "inputs": [],
      "name": "decimals",
      "outputs": [
        {
          "name": "",
          "type": "uint8"
        }
      ],
      "payable": false,
      "stateMutability": "view",
      "type": "function"
    },
    {
      "constant": false,
      "inputs": [
        {
          "name": "_address",
          "type": "address"
        },
        {
          "name": "amount",
          "type": "uint256"
        }
      ],
      "name": "mint",
      "outputs": [],
      "payable": false,
      "stateMutability": "nonpayable",
      "type": "function"
    },
    {
      "constant": true,
      "inputs": [
        {
          "name": "owner",
          "type": "address"
        }
      ],
      "name": "balanceOf",
      "outputs": [
        {
          "name": "",
          "type": "uint256"
        }
      ],
      "payable": false,
      "stateMutability": "view",
      "type": "function"
    },
    {
      "constant": true,
      "inputs": [],
      "name": "symbol",
      "outputs": [
        {
          "name": "",
          "type": "string"
        }
      ],
      "payable": false,
      "stateMutability": "view",
      "type": "function"
    },
    {
      "constant": false,
      "inputs": [
        {
          "name": "to",
          "type": "address"
        },
        {
          "name": "value",
          "type": "uint256"
        }
      ],
      "name": "transfer",
      "outputs": [
        {
          "name": "",
          "type": "bool"
        }
      ],
      "payable": false,
      "stateMutability": "nonpayable",
      "type": "function"
    },
    {
      "constant": true,
      "inputs": [
        {
          "name": "owner",
          "type": "address"
        },
        {
          "name": "spender",
          "type": "address"
        }
      ],
      "name": "allowance",
      "outputs": [
        {
          "name": "",
          "type": "uint256"
        }
      ],
      "payable": false,
      "stateMutability": "view",
      "type": "function"
    },
    {
      "inputs": [
        {
          "name": "amount",
          "type": "uint256"
        }
      ],
      "payable": false,
      "stateMutability": "nonpayable",
      "type": "constructor"
    },
    {
      "anonymous": false,
      "inputs": [
        {
          "indexed": true,
          "name": "token",
          "type": "address"
        },
        {
          "indexed": false,
          "name": "amount",
          "type": "uint256"
        }
      ],
      "name": "Mint",
      "type": "event"
    },
    {
      "anonymous": false,
      "inputs": [
        {
          "indexed": true,
          "name": "minter",
          "type": "address"
        }
      ],
      "name": "SetMinter",
      "type": "event"
    },
    {
      "anonymous": false,
      "inputs": [
        {
          "indexed": true,
          "name": "from",
          "type": "address"
        },
        {
          "indexed": true,
          "name": "to",
          "type": "address"
        },
        {
          "indexed": false,
          "name": "value",
          "type": "uint256"
        }
      ],
      "name": "Transfer",
      "type": "event"
    },
    {
      "anonymous": false,
      "inputs": [
        {
          "indexed": true,
          "name": "owner",
          "type": "address"
        },
        {
          "indexed": true,
          "name": "spender",
          "type": "address"
        },
        {
          "indexed": false,
          "name": "value",
          "type": "uint256"
        }
      ],
      "name": "Approval",
      "type": "event"
    }
  ],
  "bytecode": "0x6060604052341561000f57600080fd5b604051602080610a1a8339810160405280805191506040905080519081016040908152600382527f52444e000000000000000000000000000000000000000000000000000000000060208301528051908101604052600681527f52616964656e0000000000000000000000000000000000000000000000000000602082015260038054600160a060020a03191633600160a060020a031617905560128360048480516100bf929160200190610182565b5060058380516100d3929160200190610182565b506006805460ff191660ff841617905560038054600160a060020a03908116600090815260208190526040908190208490556002849055915416907fcec52196e972044edde8689a1b608e459c5946b7f3e5c8cd3d6d8e126d422e1c905160405180910390a2600354600160a060020a03167f0f6798a560793a54c3bcfe86a93cde1e73087d944c0ea20544137d41213968858260405190815260200160405180910390a2505050505061021d565b828054600181600116156101000203166002900490600052602060002090601f016020900481019282601f106101c357805160ff19168380011785556101f0565b828001600101855582156101f0579182015b828111156101f05782518255916020019190600101906101d5565b506101fc929150610200565b5090565b61021a91905b808211156101fc5760008155600101610206565b90565b6107ee8061022c6000396000f3006060604052600436106100b95763ffffffff7c010000000000000000000000000000000000000000000000000000000060003504166306fdde0381146100be5780630754617214610148578063095ea7b31461017757806318160ddd146101ad57806323b872dd146101d25780632c4d4d18146101fa578063313ce5671461021b57806340c10f191461024457806370a082311461026657806395d89b4114610285578063a9059cbb14610298578063dd62ed3e146102ba575b600080fd5b34156100c957600080fd5b6100d16102df565b60405160208082528190810183818151815260200191508051906020019080838360005b8381101561010d5780820151838201526020016100f5565b50505050905090810190601f16801561013a5780820380516001836020036101000a031916815260200191505b509250505060405180910390f35b341561015357600080fd5b61015b61037d565b604051600160a060020a03909116815260200160405180910390f35b341561018257600080fd5b610199600160a060020a036004351660243561038c565b604051901515815260200160405180910390f35b34156101b857600080fd5b6101c06103f9565b60405190815260200160405180910390f35b34156101dd57600080fd5b610199600160a060020a03600435811690602435166044356103ff565b341561020557600080fd5b610219600160a060020a0360043516610532565b005b341561022657600080fd5b61022e6105ab565b60405160ff909116815260200160405180910390f35b341561024f57600080fd5b610219600160a060020a03600435166024356105b4565b341561027157600080fd5b6101c0600160a060020a036004351661062e565b341561029057600080fd5b6100d1610649565b34156102a357600080fd5b610199600160a060020a03600435166024356106b4565b34156102c557600080fd5b6101c0600160a060020a036004358116906024351661078a565b60058054600181600116156101000203166002900480601f0160208091040260200160405190810160405280929190818152602001828054600181600116156101000203166002900480156103755780601f1061034a57610100808354040283529160200191610375565b820191906000526020600020905b81548152906001019060200180831161035857829003601f168201915b505050505081565b600354600160a060020a031681565b600160a060020a03338116600081815260016020908152604080832094871680845294909152808220859055909291907f8c5be1e5ebec7d5bd14f71427d1e84f3dd0314c0f7b2291e5b200ac8c7c3b9259085905190815260200160405180910390a35060015b92915050565b60025490565b600160a060020a038316600090815260208190526040812054610428908363ffffffff6107b516565b15806104685750600160a060020a0380851660009081526001602090815260408083203390941683529290522054610466908363ffffffff6107b516565b155b806104995750600160a060020a038316600090815260208190526040902054610497908363ffffffff6107bb16565b155b156104a65750600061052b565b600160a060020a03808516600081815260208181526040808320805488900390556001825280832033861684528252808320805488900390559387168083529082905290839020805486019055917fddf252ad1be2c89b69c2b068fc378daa952ba7f163c4a11628f55a4df523b3ef9085905190815260200160405180910390a35060015b9392505050565b60035433600160a060020a0390811691161461054d57600080fd5b6003805473ffffffffffffffffffffffffffffffffffffffff1916600160a060020a038381169190911791829055167fcec52196e972044edde8689a1b608e459c5946b7f3e5c8cd3d6d8e126d422e1c60405160405180910390a250565b60065460ff1681565b60035433600160a060020a039081169116146105cf57600080fd5b600160a060020a0382166000818152602081905260409081902080548401905560028054840190557f0f6798a560793a54c3bcfe86a93cde1e73087d944c0ea20544137d41213968859083905190815260200160405180910390a25050565b600160a060020a031660009081526020819052604090205490565b60048054600181600116156101000203166002900480601f0160208091040260200160405190810160405280929190818152602001828054600181600116156101000203166002900480156103755780601f1061034a57610100808354040283529160200191610375565b600160a060020a0333166000908152602081905260408120546106dd908363ffffffff6107b516565b158061070f5750600160a060020a03831660009081526020819052604090205461070d908363ffffffff6107bb16565b155b1561071c575060006103f3565b600160a060020a033381166000818152602081905260408082208054879003905592861680825290839020805486019055917fddf252ad1be2c89b69c2b068fc378daa952ba7f163c4a11628f55a4df523b3ef9085905190815260200160405180910390a350600192915050565b600160a060020a03918216600090815260016020908152604080832093909416825291909152205490565b90101590565b81011015905600a165627a7a7230582018c08f7f8ae54ec639f41d0e0f89cb09b3001a931917dd768fe5309bcd42d7fc0029",
  "source": "pragma solidity ^0.4.21;\n\nimport \"./TestToken.sol\";\n\ncontract TokenRDN is TestToken {\n    function TokenRDN (uint amount) public\n      TestToken (\"RDN\", \"Raiden\", 18, amount) {\n    }\n}\n",
  "sourcePath": "/Users/anxo/code/gnosis/dx-contracts/test/test-tokens/contracts/TokenRDN.sol",
  "compiler": {
    "name": "solc",
    "version": "0.4.21+commit.dfe3193c.Emscripten.clang"
  },
  "schemaVersion": "2.0.0",
  "updatedAt": "2018-10-26T16:19:41.713Z"
}